:100000000C947F020C94C6020C94C6020C94C60297
:100010000C94C6020C94C6020C94C6020C94C60240
:100020000C94C6020C94C6020C94952A0C94672B6F
:100030000C9483220C94C6020C94C6020C94C60243
:100040000C94C6020C94C6020C94C6020C94C60210
:100050000C94C6020C9423230C94C6020C94C60282
:100060000C94C6020C94C6020C94C6020C94C602F0
:100070000C94C6020C94C6020C94C6020C94C602E0
:100080000C94C6020C94C6020C94C6020C94C602D0
:100090000C94C6020C94C6020C94C6020C94C602C0
:1000A0000C94C6020C94C6020C94C602C50EE10E56
:1000B000E60EEB0EF00EF50EFA0EFF0E040F090F12
:1000C0000E0F130F180F1D0F220F270F2C0F310FBC
:1000D000360F79127C12811288128D1292129712A9
:1000E0009C12A112A612AB12B012B612B612B61220
:1000F000B612B612B612B612B612C717C717F9174C
:10010000F91746186418BC19BC19A6183B194C19E4
:100110004C19AC19BC19BC19B519421A421A541A17
:10012000541A4B1A541A541A541A421A421A501A90
:10013000541A541A501AD42BFB2BF32CFB2BF32CF0
:10014000472C6A2CF32CC12CD02C165C1E001F00EF
:100150002000210022002300240025002600270083
:100160002D002E002A0035002B0014001A00080074
:10017000150017001C0018000C00120013002F00BF
:10018000300031004C0039610400160007000900FE
:100190000A000B000D000E000F00330034000000B9
:1001A00028004B00E1001D001B000600190005009F
:1001B00011001000360037003800E5000000520042
:1001C0004E00E000E200E300000000002C00000010
:1001D0000000E700000001515000000051004F00F6
:1001E00035003A003B003C003D003E003F0040002F
:1001F000410042004300440045004C004A00010019
:10020000C25CC35CC55CC65CC75CC85CC95CCA5CDC
:100210000100460047004800005C4B003961CB5CA0
:10022000CC5C01000100010001000100010001009F
:10023000010001000000DE5C4E00E1000100010051
:1002400001000100010001000100010001000100A6
:1002500001000000A900A800010001000100000049
:100260000000010000000000010000000100AC00DF
:100270000000AA00AB000001010101010101010120
:100280000202020202020202020303030303030347
:100290000304040404040404050505050506060614
:1002A0000606070707070708080808090909090AD1
:1002B0000A0A0B0B0B0C0C0C0D0D0D0E0E0E0F0F76
:1002C0000F10101111111212131314141515161604
:1002D0001717181819191A1A1B1B1C1D1D1E1E1F73
:1002E0002020212222232424252626272829292AC2
:1002F0002B2C2D2D2E2F30313232333435363738EA
:10030000393A3B3C3D3E3F404142434445464748E5
:10031000494A4C4D4E4F50515354555658595A5BBB
:100320005D5E5F616264656668696B6C6D6F70725B
:10033000737577787A7B7D7E8082838587888A8CC7
:100340008E8F91939596989A9C9EA0A2A3A5A7A9FB
:10035000ABADAFB1B3B5B7BABCBEC0C2C4C6C9CBF2
:10036000CDCFD1D4D6D8DBDDDFE2E4E7E9EBEEF0A8
:10037000F3F5F8FAFDFF04033000000020036B00E2
:1003800062006400360037006D006B006900690090
:100390007200670062002000760032000000100347
:1003A0004B0042004400660061006E0073000000D4
:1003B0000403090409023B00020100A0FA09040039
:1003C0000001030101000921110100012240000781
:1003D00005810308000A0904010001030000000967
:1003E000211101000122BC000705820320000A122E
:1003F00001100100000008424B2512020001020317
:100400000105010902A10185020901A100050919DF
:1004100001290515002501950575018102950175D4
:100420000381010501093009311581257F95027588
:1004300008810609381581257F9501750881060513
:100440000C0A38021581257F950175088106C0C008
:1004500005010980A101850319012AB700150126AC
:10046000B700950175108100C0050C0901A1018537
:100470000419012AA002150126A002950175108118
:1004800000C005010906A1018505050719E029E756
:10049000150025019508750181020507190029EF4E
:1004A0001500250195F0750181020508190129053E
:1004B000950575019102950175039101C00501092A
:1004C00006A101050719E029E71500250195087522
:1004D0000181029501750881010507190029FF15A1
:1004E0000026FF00950675088100050819012905F9
:1004F000950575019102950175039101C0001124C4
:100500001FBECFEFDAE0DEBFCDBF04B603FE27C0CB
:100510008091900690919106A0919206B0919306D9
:100520008730904BA740B04BD1F4109290061092B8
:100530009106109292061092930614BE84B7877F9C
:1005400084BF0FB6F894A89580916000886180936D
:100550006000109260000FBEE0E0F8E3099513E040
:10056000A0E0B1E0E6EEFBE502C005900D92A43CF0
:10057000B107D9F726E0A4ECB3E001C01D92A03981
:10058000B207E1F70E94C4270C94F12D0C940000EF
:100590000C94CC050C94CA050C94E60281E00E94F0
:1005A000AE0F0C94492280E00E94AE0F0C942F22D3
:1005B0000E94861581FF07C02FEF4FEF6FEF8EE18E
:1005C00090E00C94ED09089581E0089581E008958C
:1005D0001F93CF93DF9300D000D01F92CDB7DEB72B
:1005E00049835A836B832091320489819A81211136
:1005F00012C0662349F00E94921F182F682F89812C
:100600009A810E943B1F03C00E94661F182F6981B8
:100610007A81812F04C00E94921F69817A810F9094
:100620000F900F900F900F90DF91CF911F910C942E
:10063000B103FC01408151816281738184810C94FA
:10064000E8020E9420068FEB9DE50197F1F700C0BC
:1006500000000E94200680E00E94BB0580FF04C0CD
:100660000E94C4200C94492308950E9421030E94F3
:10067000CA20811102C00E946A210E94800F0C943E
:10068000C8020E94080E0C94CA0208950C944503F7
:1006900081E008950C944803CF93C82F0E9446032D
:1006A0008C2F0E944A03CF91089508950E94301A1A
:1006B0000E9455032FEF84E39CE02150804090403E
:1006C000E1F700C000000C9449230F931F93CF93D0
:1006D000DF93EC010E9419038C01BE010E946A0D98
:1006E0008823A9F1BE01C8010E94CC02882379F1B8
:1006F000BE01C8010E943013882349F1BE01C80120
:100700000E947113882319F1BE01C8010E949C1434
:100710008823E9F0BE01C8010E9462128823B9F063
:100720008A81882369F001158CE5180731F00E3DA8
:100730001C4531F40E946A210AC00E94560307C07A
:10074000CE01DF91CF911F910F910C94E40280E0D4
:10075000DF91CF911F910F91089580E090E008956F
:1007600008952BE4829FC0011124FC012FE0729FA9
:10077000E00DF11D1124E60FF11DEE0FFF1FE65BEA
:10078000FE4F859194910895880F991FFC01EA58B6
:10079000FD4F859194910895CF93DF930E94B1030B
:1007A0000E94E404EC018115904508F041C0C11598
:1007B00080E4D80708F0D1C0C83ED10510F5C03E8E
:1007C000D10508F0FDC0C83AD10578F4C53AD10585
:1007D00008F0A2C0C130D10509F4F2C008F4EEC09F
:1007E000C430D10508F0ECC0E9C0CF3BD10508F416
:1007F0009BC0C03CD10508F4E1C0CE01805C9109EA
:100800009EC0C11590E2D90758F4C11521E0D20766
:1008100008F0D6C0C03FD10508F4D0C0D065D0C024
:10082000C11580E3D80708F08EC0CE019F7087C045
:10083000C11595E5D90708F043C0C11524E5D207D5
:1008400008F0A2C0C11582E5D80708F5C11591E5E9
:10085000D90708F085C0CE0174E0969587957A9502
:10086000E1F783709C2F937021E030E002C0220FEB
:10087000331F9A95E2F73C68382BCF70C695C69522
:1008800080E2C89FE0011124C22BD32B99C09E01A6
:10089000237033278C2F86958695C115D34508F094
:1008A00064C0C1E0D0E002C0CC0FDD1F2A95E2F7A2
:1008B00020E2829FC0011124C82BD92BDC6880C0A4
:1008C000C11529E5D207A0F4C11588E5D80708F0BD
:1008D00060C0C11596E5D90708F070C08C2F0E9442
:1008E00078058F71C82FD0E0DC2FCC27D06268C08C
:1008F000C1152AE5D20708F451C0CE0190568115E2
:10090000904208F05BC08D2F8F710E947805DD2723
:10091000D0628F71D82B54C0C55AD0E0C459DC4F77
:10092000C881D0E0D0644CC0C85AD0E0CC0FDD1FE5
:10093000C25CDC4F0990D881C02DD46441C00E94B4
:10094000C403EC013DC0CE019927D3FF03C0EC01E5
:10095000D86C36C0EC01D06C33C0DF70D06A30C0C8
:10096000DC2FCC27C16FD06A2BC0C1E0D0E002C021
:10097000CC0FDD1F2A95E2F720E2829FC0011124EF
:10098000C82BD92BDA681CC0DC2FCC27C46FD06AE7
:1009900017C0DC2FCC27C06FD06A12C08C2F8F708D
:1009A0000E94780594E0D695C7959A95E1F7CF70A7
:1009B000D0E0DC2FCC27D069C82B02C0C0E0D0E04B
:1009C000CE01DF91CF9108958238910569F1B0F49D
:1009D0008133910509F46DC048F48932910509F419
:1009E00063C08A32910509F469C008958533910581
:1009F00009F455C089339105B9F00895833E9105F6
:100A000069F138F4803E9105B1F0823E910509F11B
:100A10000895863E9105A9F1873E9105B9F1843E7E
:100A2000910509F064C023C02091810620FD4FC0CC
:100A300021FD4DC008958091810680FD44C08091C4
:100A4000820680FF44C08091810684FD42C083EE0F
:100A50004DC08091810682FF38C0F5CF809181061C
:100A600082FD33C08091820680FD31C0ECCF809141
:100A7000820681FF32C08091810684FD2AC087EE04
:100A800035C08091810683FF26C0F5CF8091810615
:100A900083FD21C08091820681FD1FC0ECCF809133
:100AA000810685FD1CC01DC08091810685FD19C091
:100AB00016C08091810686FD16C017C08091810600
:100AC00086FD13C010C089E311C082EE0FC080EE16
:100AD0000DC080E00BC086EE09C084EE07C089E23D
:100AE00005C085E303C08AE201C081E390E0089578
:100AF0009091810692FF0DC0282F2871283019F49B
:100B0000877F846006C0282F2471243011F48B7FE6
:100B1000886093FF0DC0282F2871283119F4877E33
:100B2000846106C0282F2471243111F48B7E8861E2
:100B30002091820620FF0DC0382F3871383019F40B
:100B4000877F816006C0382F3171313011F48E7F7C
:100B5000886021FF0DC0282F2871283119F4877E65
:100B6000816106C0282F2171213111F48E7E8861A8
:100B700094FD877E0895E82FF0E0EE0FFF1FE95FF8
:100B8000FA4F808191810895089580EA8A95F1F75E
:100B9000089508950C94C9050C94C905CF93DF936B
:100BA000AEE7B3E043E853E061E070E08D91E82FF9
:100BB000E295EF70F0E021A18F70EB0102C0CC0F45
:100BC000DD1F8A95E2F7CE019C2F9095922391A389
:100BD00092A1892B82A34A175B0741F7AFE6B3E0E6
:100BE0004EE753E061E070E08D91E82FE295EF7001
:100BF000F0E021A18F70EB0102C0CC0FDD1F8A95C0
:100C0000E2F7CE019C2F9095922391A392A1892B7C
:100C100082A34A175B0741F7EDEFF4E0A7E0B5E0E8
:100C200087E095E0119211921D921D928E179F07F9
:100C3000C9F785E00E94BD06DF91CF910C94350382
:100C40002F923F924F925F926F927F928F929F92DC
:100C5000AF92BF92CF92DF92EF92FF920F931F93CA
:100C6000CF93DF938EE7C82E83E0D82E0DEF14E0EC
:100C700097E0492E95E0592E312C88248394912CAD
:100C80005801D8016D907C9011971D921C92F6012D
:100C900081916F01C82FC295CF70D0E099A18F705C
:100CA000740101C0EE0C8A95EAF7892F8E2989A379
:100CB0008AA12E2C209482218AA30E94C505EFE6EA
:100CC000F3E020E030E06191A62FA295AF70B0E094
:100CD00090968C91D8014D915C9190E06F7002C01C
:100CE000959587956A95E2F780FD08C0C401022EAC
:100CF00002C0880F991F0A94E2F702C080E090E0DA
:100D0000482B592BD8014D935C932F5F3F4F2F30C9
:100D10003105C9F689A1282229A28AA1E82AEAA2D6
:100D20000E5F1F4F81E0F5012081318126153705C7
:100D300009F480E0382A4016510609F0A1CF232D8E
:100D400045E067E075E08DEF94E00E94BE060E94EA
:100D50004103832DDF91CF911F910F91FF90EF9071
:100D6000DF90CF90BF90AF909F908F907F906F90CB
:100D70005F904F903F902F9008950895FF920F93AA
:100D80001F93CF93DF93F82E092F162FD72FC42F41
:100D9000222349F081E08093C6030E94B5229093FC
:100DA000C5038093C4038091C6038823D9F0809142
:100DB000C4039091C5030E94CD22049798F0EF2DB3
:100DC000F02FA12FBD2F80E090E04C2F50E0841732
:100DD000950734F4219131912D933D930196F7CFEE
:100DE0001092C603DF91CF911F910F91FF9008954C
:100DF000EF92FF920F931F93CF93DF93F62E472F1F
:100E0000E82FF0E0711106C0EA58FD4F6491762F8B
:100E1000862F72C0272F30E0EA58FD4FE4910E2F45
:100E200010E056E0659FC0011124CFEFD0E0BE0175
:100E30000E94272D5BEA5603C001579F900D112495
:100E40008F0D911D8F0D911D982F990F890F7E0188
:100E5000E21AF30AE09ED001E19EB00DF09EB00DC3
:100E60001124489FA0011124452F55277E01E41A23
:100E7000F50AE09EA001E19E500DF09E500D112458
:100E80007E01E81AF108E29EC001E39E900DF29EF9
:100E9000900D1124892F9927C81BD90BC09FC00121
:100EA000C19F900DD09F900D11246230710591F07B
:100EB00048F461157105E1F061307105A9F48B2FDB
:100EC000752F19C06430710561F038F06630710516
:100ED00079F00AC0892F7B2F0EC08E2F7B2FE52F34
:100EE0000AC08E2F792F02C0852F7E2FEB2F03C0D3
:100EF0008B2F7E2FE92F6E2FDF91CF911F910F91B6
:100F0000FF90EF90089520E030E0869F212D969F7E
:100F1000200D311D1124C9010895BC0182309105B5
:100F200008F40895613E8EE1780748F49B0195E04E
:100F3000369527959A95E1F748E0420F01C04FEFAB
:100F400091E0242F30E0290F311D35952795229F00
:100F5000F001239FF00DF00D11246E177F0718F498
:100F60004FEF420F04C02F3F39F091E0920F491725
:100F700040F78FEF890F08958FEF0895482F982F2E
:100F800046FD9095E92FEF739F7046FD9F5FE295B8
:100F9000EF70EE0FF0E0ED57FC4F2181299F802D7F
:100FA000212D112482958F702295207F822B3081F4
:100FB000982F930F892F47FD819580580895E42F2E
:100FC000F0E0EE0FFF1FE55BFE4F408134EE439FE4
:100FD000412D1124E82FF0E050E0445E5F4FDA012C
:100FE000A21BB1099D01B7FF03C0319521953109BD
:100FF00093E0220F331F9A95E1F7AF01421B530B89
:101000009A0157FF02C020E030E0582F259F212D84
:101010001124822F0895E42FF0E0EE0FFF1FE55B0F
:10102000FE4F6081621B0895E42FF0E0EE0FFF1F7A
:10103000E45BFE4F6081621B0895A22F50E0FA012D
:10104000EE0FFF1FE45BFE4F9081905297FD91954C
:10105000440F551FFA01E55BFE4F3081232F30E02E
:101060002A1B3109290F311D97FD3A95620F08950A
:10107000EF920F931F9393E0099F80011124159520
:1010800007956E2D600F1F910F91EF9008950F93AC
:10109000CF93DF93D72FC82F47FD4195E8E3F0E0CA
:1010A000CF01841B910947FD9395889FB001899FCB
:1010B000700D700D1124229FC001239F900D900D83
:1010C0001124860F971F0E948D07682F660F860FC9
:1010D000682F600F7D2F8C2FDF91CF910F91089596
:1010E0000F931F93522F10E0F801EE0FFF1FE45BE8
:1010F000FE4FE081F0E0B0979F015203D001539F73
:10110000B00D1124000F111FF801E55BFE4F0081A7
:1011100010E00057110940039001419F300D112448
:101120002A0F3B1F37FF02C021583F4F220F232FAA
:10113000221F330B620F1F910F9108950F931F937E
:10114000522F10E0F801EE0FFF1FE45BFE4FE0812D
:10115000F0E0B097EE0FFF1F9F015203D001539FA5
:10116000B00D1124000F111FF801E55BFE4F008147
:1011700010E000571109000F111F40039001419F1B
:10118000300D11242A0F3B1F37FF02C021583F4F5B
:10119000220F232F221F330B620F1F910F910895EF
:1011A0000F931F9310E0F801EE0FFF1FE55BFE4F5A
:1011B0009081905797FD9195000F111FF801E45B06
:1011C000FE4FE081F0E0B097DF01AA0FBB1F8D0159
:1011D0000E0F1F1F2003D001219FB00D1124E8E343
:1011E000F0E0E91BF10997FDF3959F01220F331FF2
:1011F00089010E0F1F1F40039001419F300D1124E4
:101200002A0F3B1F37FF02C021583F4F220F232FC9
:10121000221F330B620F1F910F91089522E8241BA8
:1012200008F420E0620F0895FC019B01009721F46F
:1012300077FF2BC080E80895AC0197FF04C04427D6
:101240005527481B590BB901640F751F37FD0CC09A
:10125000241B350BC901A5E0880F991FAA95E1F75A
:101260000E943B2D80E20CC0CB0165E0880F991FE6
:101270006A95E1F7BA01621B730B0E943B2D80E671
:10128000861BF7FF03C08195089580E00895FF92C3
:101290000F931F93CF93DF93F62ED72F182FC901EB
:1012A000C12FC01BBA010E941409982F990F890FF2
:1012B000C81B2C2F219F212D1124822F6F2D7D2FB4
:1012C000DF91CF911F910F91FF900895EF920F93AF
:1012D0001F93CF93DF93D62FC72F182FC9010E1955
:1012E000010FBA010E941409081B202F219F212DF4
:1012F0001124822F6D2F7C2FDF91CF911F910F91A1
:10130000EF9008950F93CF93DF93D72FC82FC90184
:10131000BA010E941409682F600F7D2F8C2FDF9176
:10132000CF910F910895EF920F93CF93DF93D72F23
:10133000C82FC9010E19BA010E941409602F681B39
:101340007D2F8C2FDF91CF910F91EF90089545E085
:1013500050E06CE170E081E195E00C949F2D45E058
:1013600050E06CE170E081E195E00C94BD2DE1E18D
:10137000F5E081E2808380912F0290913002A0916C
:10138000310281839283A3838FE784830C94AF0916
:1013900080E008950F931F93CF93DF93C82FD62F2C
:1013A0008A010E94C8099FE0C99FF0011124E05002
:1013B000FF4FED0FF11D90819F3F29F0F801E80FDD
:1013C000F11D90838F5FDF91CF911F910F91089551
:1013D000E0919103F09192030994E0918D03F091D3
:1013E0008E0309944F925F926F927F928F929F9299
:1013F000AF92BF92CF92DF92EF920F931F93CF9352
:10140000DF932C013B01FC01C081CC0FCC0FD4E059
:10141000DC0FD43408F0D3E4609115056695809113
:101420003F05909140050E948307182FCD1708F0C3
:1014300044C08C2E912CF401EF52FE4F9081F201AA
:1014400081818923C1F1F401EE0FFF1FE55BFE4F9F
:10145000C080D12CF0E7CF1AD108F401EE0FFF1FA6
:10146000E45BFE4FA080B12C80E2A81AB108CC9CAE
:101470009001CD9C300D300D1124AA9CC001AB9C75
:10148000900D900D1124820F931F0E948D07082F3D
:10149000609112057091130580911405E12E95015C
:1014A000A601F30109950E94F806462F282F672F01
:1014B000C4010E94ED09CF5FB9CF81E0D33408F0B9
:1014C00080E0DF91CF911F910F91EF90DF90CF904F
:1014D000BF90AF909F908F907F906F905F904F9054
:1014E000089566E679E00C94F20968E378E00C94DC
:1014F000F20963E979E00C94F209AF92BF92CF92BE
:10150000DF92EF92FF920F931F93CF93DF936C01C3
:101510005B01FC01C081CC0FCC0FD4E0DC0FD434D4
:1015200008F0D3E460911505669580913F05909190
:1015300040050E948307182FCD1778F5EC2EF12C6B
:10154000F701EF52FE4F9081F6018181892319F155
:10155000F701EE0FFF1FE45BFE4F208130E02052C9
:101560003109F701EE0FFF1FE55BFE4F408150E0B0
:10157000405751096091120570911305809114052F
:10158000012FF50109950E94F806462F282F672F95
:10159000C7010E94ED09CF5FCFCF81E0D33408F0BF
:1015A00080E0DF91CF911F910F91FF90EF90DF903E
:1015B000CF90BF90AF90089567E479E00C947D0AD6
:1015C00067E478E00C947D0A62E879E00C947D0A87
:1015D000BF92CF92DF92EF92FF920F931F93CF9320
:1015E000DF938C017B01FC01C081CC0FCC0FD4E0D8
:1015F000DC0FD43408F0D3E4609115056695669548
:1016000080913F05909140050E948307B82ECD1729
:10161000F0F4CC2ED12CF601EF52FE4F9081F80160
:101620008181892391F06091120570911305809159
:1016300014052B2D4C2FF70109950E94F806462F13
:10164000282F672FC6010E94ED09CF5FE0CF81E010
:10165000D33408F080E0DF91CF911F910F91FF907C
:10166000EF90DF90CF90BF9008956FED77E00C94EE
:10167000E80A6BE078E00C94E80A64E178E00C9406
:10168000E80A6DE178E00C94E80A7F928F929F92CD
:10169000AF92BF92CF92DF92EF92FF920F931F9380
:1016A000CF93DF936C015B01FC01C081CC0FCC0FA9
:1016B000D4E0DC0FD43408F0D3E4609115056695CE
:1016C000669580913F05909140050E948307182FF1
:1016D00080E4810F0E94BE0790E8F92EF80E812F5A
:1016E0000E94BE0720E8722E780ECD1700F58C2ED2
:1016F000912CF401EF52FE4F9081F60181818923F4
:10170000A1F0609112057091130580911405E12EEE
:101710000C2F272D4F2DF50109950E94F806462F15
:10172000282F672FC4010E94ED09CF5FDECF81E033
:10173000D33408F080E0DF91CF911F910F91FF909B
:10174000EF90DF90CF90BF90AF909F908F907F9061
:10175000089560E778E00C94450B6EE978E00C940E
:10176000450B60ED78E00C94450BAF92BF92CF92A1
:10177000DF92EF92FF920F931F93CF93DF937C0141
:101780005B01FC01C081CC0FCC0FD4E0DC0FD43462
:1017900008F0D3E42091150530E040E050E06FEF11
:1017A0007FEF80E090E00E944F2D8901CD17E8F592
:1017B000CC2ED12CF601EF52FE4F9081F7018181A2
:1017C000892389F190911605915097FD15C0292F15
:1017D000092E000C330BF901EA5EFA4F8189C81318
:1017E000F3CF220F331FF901EA5EFA4F218D328DBC
:1017F0002017310748F701C0980160911505C9010C
:101800000E948307AC0160911205709113058091CD
:101810001405F50109950E94F806462F282F672F19
:10182000C6010E94ED09CF5FC1CF81E0D33408F03B
:1018300080E0DF91CF911F910F91FF90EF90DF90AB
:10184000CF90BF90AF9008956EE079E00C94B50B07
:10185000DF92EF92FF920F931F93CF93DF938C0150
:10186000DC01CC91CC0FCC0FD4E0DC0FD43408F0E9
:10187000D3E46091120570911305809114050E94C4
:10188000F806F62EE72ED82ECD1798F4EC2FF0E0C0
:10189000DF01AF52BE4F8C91D80111969C919823D5
:1018A00031F02D2D4F2D6E2DCF010E94ED09CF5F10
:1018B000EBCF81E0D33408F080E0DF91CF911F912E
:1018C0000F91FF90EF90DF900895AF92BF92CF926B
:1018D000DF92EF92FF920F931F93CF93DF938C01D0
:1018E000FC01C081CC0FCC0FD4E0DC0FD43408F065
:1018F000D3E4E0901305F0901405D09012056D2DFF
:101900007E2D8F2D0E94F806C62EB72EA82E609130
:1019100015056D0D7E2D8F2D0E94F806F62EE72EF3
:10192000D82ECD17B8F48C2F90E0FC01EF52FE4F6B
:101930003081F8012181232359F030FF04C02D2D7F
:101940004F2D6E2D03C02A2D4C2D6B2D0E94ED09BD
:10195000CF5FE7CF81E0D33408F080E0DF91CF9113
:101960001F910F91FF90EF90DF90CF90BF90AF90BD
:101970000895BF92CF92DF92EF92FF920F931F9341
:10198000CF93DF937C01FC01C081CC0FCC0FD4E05E
:10199000DC0FD43408F0D3E4C0901305B0901405E4
:1019A0002091150530E4D32E3D2D329F312D112489
:1019B000D32ECD1738F50C2F10E0F801EF52FE4F63
:1019C0009081F70181818923D9F0F801EE0FFF1F83
:1019D000E55BFE4F6081D69EB001112495E07595C0
:1019E00067959A95E1F780911205680F7C2D8B2DF4
:1019F0000E94F806462F282F672FC8010E94ED0984
:101A0000CF5FD7CF81E0D33408F080E0DF91CF9172
:101A10001F910F91FF90EF90DF90CF90BF900895AE
:101A2000DF92EF92FF920F931F93CF93DF938C017E
:101A3000DC01CC91CC0FCC0FD4E0DC0FD43408F017
:101A4000D3E4E0901205F0901305D0901405609156
:101A5000150566956695669580913F0590914005C0
:101A60000E9483070E94BE07805887FD8195880FDA
:101A7000282F3D2D239F212D1124822FB7010E9455
:101A8000F806F62EE72ED82ECD1798F4EC2FF0E0BE
:101A9000DF01AF52BE4F8C91D80111969C919823D3
:101AA00031F02D2D4F2D6E2DCF010E94ED09CF5F0E
:101AB000EBCF81E0D33408F080E0DF91CF911F912C
:101AC0000F91FF90EF90DF900895E0918F03F091D8
:101AD00090030994CF92DF92EF92FF920F931F939E
:101AE000CF93DF93CDB7DEB728970FB6F894DEBF5C
:101AF0000FBECDBFFB018281882389F0AE014F5F0D
:101B00005F4F608181810E94CA09F82E10924305BF
:101B100010924405109245051092460501C0F12C23
:101B2000E090C7030F2D10E0C8018E0D911D09979D
:101B300064F188E090E06C01C01AD10AB8016853E2
:101B40007C4FA60188EC93E00E94962DB80160536B
:101B50007C4FA60180ED93E00E94962DA601440FD4
:101B6000551FB801660F771F60527C4F80EE93E0DF
:101B70000E94962DB80168527C4FA60188ED93E033
:101B80000E94962DEA94E092C7031091C703DE01EC
:101B9000119640E0842F810FF41609F190E05D91D9
:101BA000252F30E0BC0169537C4FF901EE0FFF1F78
:101BB000E55BFE4F0081FB010183220F331FF9011A
:101BC000E45BFE4F2081FB012187518B880F991F19
:101BD000FC01E953FC4F128E118E4F5FDBCF8093D7
:101BE000C70381E028960FB6F894DEBF0FBECDBFC5
:101BF000DF91CF911F910F91FF90EF90DF90CF90E9
:101C0000089508950C94010E0E94020E0C94D802BF
:101C1000CF92DF92EF92FF920F931F93CF93DF93B8
:101C20006091F0037091F1038091F2039091F303BE
:101C30000E94F7226B017C01EB010E94C122AB01E3
:101C4000BC014093F0035093F1036093F20370934F
:101C5000F3038091430590914405A0914505B0910F
:101C600046058F3F2FEF9207A207B20729F1EE2416
:101C7000FF2497018601009510952095309508174F
:101C800019072A073B0760F48FEF9FEFDC01809371
:101C9000430590934405A0934505B09346050CC0B9
:101CA000C80ED91EEA1EFB1EC0924305D092440501
:101CB000E0924505F0924605A091C703E7ECF3E0FA
:101CC0002A2F30E07E01E094F094A31771F0818D0B
:101CD000928DE816F90610F4215004C08C0F9D1F58
:101CE000928F818F3F5F3296F0CF2093C703F090A1
:101CF000F403F11008C0C09111058C2F837019F006
:101D0000C695C69501C0C0E0809114028130E9F00B
:101D100038F0823009F4C1C0833009F4CBC0DBC095
:101D20001092150240933F05509340056093410582
:101D30007093420589E2E7ECF3E0A6E1B5E001909B
:101D40000D928A95E1F781E0B2C080911802C81324
:101D50000DC020911105237030E04091190250E030
:101D600081E02417350719F480E001C081E081701B
:101D7000809317024C2F50E04331510508F07BC08F
:101D8000FA01EA5AFF4F0C946E2D882309F473C0B0
:101D9000D0911502DD0FDD0F14E01D0F143408F093
:101DA00013E4D11748F420E040E060E08D2F90E08C
:101DB0000E94ED09DF5FF5CF81E0133408F45CC0C9
:101DC0005AC085E192E00E94280C56C085E192E05D
:101DD0000E94650C51C085E192E00E94B90C4CC094
:101DE00085E192E00E94100D47C085E192E00E94DB
:101DF000350B42C085E192E00E94DC0A3DC085E1DE
:101E000092E00E94710A38C085E192E00E94390B8D
:101E100033C085E192E00E943D0B2EC085E192E047
:101E20000E94410B29C085E192E00E94750A24C0FE
:101E300085E192E00E94E00A1FC085E192E00E94E5
:101E4000E40A1AC085E192E00E94790A15C085E192
:101E500092E00E94A90B10C085E192E00E94AD0BB8
:101E60000BC085E192E00E94B10B06C085E192E0D3
:101E70000E94240C01C080E0909115029F5F909316
:101E80001502811128C082E080931402809117020C
:101E9000811121C0CC2351F01EC0C0931802809143
:101EA00011058370809319020E94E80983E08093F2
:101EB000140211C060913F05709140058091410569
:101EC000909142050E94F7226A31710581059105C2
:101ED00010F010921402F1100AC0DF91CF911F91FF
:101EE0000F91FF90EF90DF90CF900C94040EDF9154
:101EF000CF911F910F91FF90EF90DF90CF900895B9
:101F0000E0918B03F0918C03099510921605EFE296
:101F1000F5E08FEF9FEF8193919325E0EF33F20788
:101F2000D1F71092C703E0EEF3E08FEF9FEF8193BC
:101F3000919323E0E03FF207D1F70E94CA2081117C
:101F400004C00E946A210E94B7090E94A7098091DB
:101F500011058C7F11F40C94B7090895CF93C82F05
:101F6000882329F040E060E080E00E94650DC09386
:101F7000F403CF910895E1E1F5E0908181E08927B4
:101F80008083109214020C94AF0990911105892F4F
:101F9000869586958F5F8F739370833120F4880FB9
:101FA000880F892B02C0892F8460809311051092BD
:101FB00014020C94AF0990911105892F869586958E
:101FC000815C8F739370882321F0880F880F892B91
:101FD00002C0892F886480931105109214020C941A
:101FE000AF09E1E1F5E08181885F81830C94AF095D
:101FF000E1E1F5E08181885081830C94AF09E1E152
:10200000F5E0228130E1230F08F42FEF22830C94B6
:10201000AF09E1E1F5E0228130E1231B08F420E083
:1020200022830C94AF092091140530E1230F08F4AA
:102030002FEF213A18F42093140503C080EA80930F
:1020400014050C94AF09E1E1F5E0238130E1231B95
:1020500008F420E023830C94AF09E1E1F5E024814A
:1020600030E1230F08F42FEF24830C94AF09E1E152
:10207000F5E0248130E1231B08F420E024830C9454
:10208000AF09E1E1F5E0880F880F90819370892B0B
:102090008083109214020C94AF0960E084E70E94E0
:1020A0001C1261E087E70C941C12CF930E94CD14A0
:1020B00084E70E94A21087E70E94A210C0E021E0FE
:1020C00041E061E08C2F0E943811CF5FC334B9F733
:1020D00060E084E70E94341261E087E7CF910C94BE
:1020E0003412E7E6F6E06083418324E630E042E024
:1020F00050E0BF01880F0C945A150F931F93CF9394
:10210000DF93082F000FEB0114E210936706E8E657
:10211000F6E0DE018D91819386E0E837F807D1F78C
:1021200024E630E041E150E067E676E0802F0E944F
:102130005A15105F6096143B41F7DF91CF911F91C4
:102140000F910895CF93DF93C82F4BE06DEF0E945E
:10215000711040E06AE08C2F0E9471108FE39CE9BF
:102160000197F1F700C0000040E060E08C2F0E9472
:10217000711040E061E08C2F0E94711040E066E039
:102180008C2F0E94711040E06DEF8C2F0E94711017
:10219000D0E040E06D2F8C2F0E947110DF5FD231B4
:1021A000C1F740E06D2F8C2F0E947110DF5FD43299
:1021B000C1F740E06D2F8C2F0E947110DF5FD43B80
:1021C000C1F74BE06DEF8C2F0E94711041E06AE087
:1021D0008C2F0E94711040E06DEF8C2FDF91CF911A
:1021E0000C9471108334910540F5880F991F880F66
:1021F000991FFC01EE5CFD4F528133818081837019
:102200007181A82FB0E0E0E98E9FC0011124895BA5
:102210009A4FFC01E70FF11DB4976083FC01E50FB5
:10222000F11DB4974083830F911DFC01B497208367
:10223000FD01E55EFB4F81E080830895FF920F93DF
:102240001F93CF93DF93182F062FF42EC0E0D0E01A
:102250002F2D402F612FCE010E94F2102196C33402
:10226000D105B1F7DF91CF911F910F91FF900895A4
:102270007F928F929F92AF92BF92CF92DF92EF9216
:10228000FF920F931F93CF93DF93362F54E0859FD8
:10229000C0011124FC01EE5CFD4F60816370762E5D
:1022A000618170E0CB0184978C0197FF02C0095FC8
:1022B0001F4FA3E015950795AA95E1F7628170E09D
:1022C0007B0154E2E51AF108E701F7FC279673E079
:1022D000D595C7957A95E1F7638170E04B0154E29B
:1022E000851A9108F40197FC379653E0F595E79528
:1022F0005A95E1F768E0A62EB12CB5010E943B2D5E
:102300006C01C701B5010E943B2D7C01C401B501E0
:102310000E943B2D1127672D70E0DD24332399F0B7
:1023200032E1369FD001379FB00D1124A950BC4F28
:10233000A00FB11F01E010E001C0000FCA94EAF73E
:102340003C91032B13C032E1369FD001379FB00D73
:102350001124A950BC4FA00FB11F01E010E001C033
:10236000000FCA94EAF700953C9103230C93DD27F4
:10237000FF2432E1442391F0369FA001379F500D96
:10238000112449505C4FC40FD51F41E050E001C0FB
:10239000440FEA94EAF73881432B12C0369FA0011C
:1023A000379F500D112449505C4FC40FD51F41E099
:1023B00050E001C0440FEA94EAF740953881432386
:1023C0004883AF015527992792E1969FF001979F87
:1023D000F00D1124E950FC4FE40FF51F222361F0AA
:1023E00021E030E0A90102C0440F551F8A95E2F7B1
:1023F000CA019081892B0CC021E030E0A90102C004
:10240000440F551F8A95E2F7CA0180959081892370
:102410008083FB01EB50FC4F81E08083DF91CF9103
:102420001F910F91FF90EF90DF90CF90BF90AF90F2
:102430009F908F907F900895CF93DF93262F30E069
:10244000E901C55EDB4F9881992351F090E9929F95
:10245000B001939F700D1124695B7A4F0E947D102B
:102460001882DF91CF910895FF920F931F93CF931E
:10247000DF93E62FF0E0EB50FC4F90819923B1F011
:10248000F82E82E1689FE001112400E010E0F801DD
:10249000EC0FFD1FE950FC4F4081602F8F2D0E94F3
:1024A00071100F5F1F4F0231110589F7DF91CF9136
:1024B0001F910F91FF900895882311F0FA0101C038
:1024C000FB0109940F931F93CF93FB01C281CC238F
:1024D00009F44AC08C010E9413208272F801E25C68
:1024E000FC45E431F10508F042C0E759FF4F0C9478
:1024F0006E2D0E94BB0F3AC04BED5FE065EC7FE0B4
:1025000004C045EC5FE06BED7FE00E945C122EC0E2
:1025100048EF5FE061EF7FE0F8CF41EF5FE068EF09
:102520007FE0F3CF49E050E16FEF7FE0EECF4FEF78
:102530005FE069E070E1E9CF43E250E163E170E11F
:10254000E4CF43E150E163E270E1DFCF47E350E1E4
:102550006DE270E1DACF4DE250E167E370E1D5CF93
:1025600081E00E94411002C0C1E001C0C0E08C2F98
:10257000CF911F910F9108950F931F93CF93DF93E6
:10258000C62FD42F122FFC0182818823C9F06093BB
:102590001F040E94B52290931E0480931D0480E2C4
:1025A0008C0F883008F057C0C77081E001C0880FD9
:1025B000CA95EAF7DF91CF911F910F910C9487177D
:1025C00080911F04681330C080911D0490911E04F7
:1025D0000E94CD22883C910538F500E20D0FCD1701
:1025E000B9F080E28C0F883040F4C77081E001C000
:1025F000880FCA95EAF70E948E17083028F581E007
:102600009D2F977001C0880F9A95EAF70E9487174F
:10261000812F0E9474170830F0F4D77081E001C058
:10262000880FDA95EAF70AC080E28C0F883098F4B8
:10263000C77081E001C0880FCA95EAF7DF91CF919A
:102640001F910F910C948E17812FDF91CF911F91C5
:102650000F910C947417DF91CF911F910F910895F2
:102660009C01CB01233F4CE53407F9F078F4283D79
:10267000FCE53F07B9F0293D4CE5340711F1273D52
:102680003C4531F526E241EE61EE1EC0253FFCE5FA
:102690003F0799F070F0263F3C45D1F427E245EE24
:1026A00066EE12C027E245EE0EC026E241EE60EE75
:1026B0000BC027E245EE64EE07C026E241EE62EE73
:1026C00003C028E241E065EE0E94BC1280E008955C
:1026D000FC018281882319F010921F04089581E083
:1026E0000895CF93DF93EC01FB018281882309F4E5
:1026F0001FC1C230FCE5DF0708F41BC1C6319CE5F1
:10270000D90738F09E012A5F3C452930310508F091
:1027100010C10E94DD209093820680938106C03113
:10272000ECE5DE0709F4C3C008F041C0C8308CE511
:10273000D80709F49AC0F0F4C430ECE5DE0709F4D8
:1027400087C068F4C2308CE5D80709F477C0C3307D
:10275000DC4509F0E3C080918106826076C0C63016
:10276000ECE5DE0709F46EC008F07BC080918106BD
:1027700088606BC0CC308CE5D80709F485C068F45C
:10278000CA30ECE5DE0709F474C008F079C00E9495
:10279000301A80918106806858C0CE308CE5D80709
:1027A00009F476C008F07FC0809181068BC0CB3FD2
:1027B000ECE5DE0709F44FC018F5C3318CE5D80706
:1027C00009F47DC078F4C131ECE5DE0709F473C08B
:1027D000C231DC4509F0A2C00E94301A8091810606
:1027E0008F7733C0C5318CE5D80709F472C008F47F
:1027F00086C0CA3FDC4509F091C0809182063EC088
:10280000CF3FFCE5DF0709F45FC058F4CD3F9CE5FE
:10281000D90709F444C008F43FC080918206826061
:102820002DC0C130FDE5DF0709F475C008F45DC0B7
:10283000C230DD4509F072C080E06EC08091810633
:10284000816003C08091810680618093810666C0AB
:102850008091810611C080918206826080938206F9
:102860005DC0809181068062F0CF80918106806496
:10287000ECCF8091810688608460E7CF8160EECFE5
:10288000809181068E7FE1CF809181068D7FDDCFA3
:1028900080918106877FD9CF8091820618C0809170
:1028A00082068D7FDBCF809181068F7ECECF809197
:1028B00081068F7DCACF809181068F7BC6CF8091A4
:1028C0008106877F8B7FC1CF809182068D7F8E7F2F
:1028D000C5CF8091810682FB222720F991E09227C3
:1028E00090FB82F990FB83F9B0CF80918206982FFC
:1028F000909591708E7F892B90FB81F9AFCF0E94CC
:10290000301A8091810687FB222720F991E09227D7
:1029100090FB87F99ACF81E00E946C21809181061B
:10292000909182060E94EE200E94301A80E001C041
:1029300081E0DF91CF910895CF93DF9386319C455D
:1029400041F5EB010E941320982F8A8120911A02F1
:1029500030911B02882379F09A7A81E009F480E0B3
:1029600080932004911102C069E201C065E3C901AE
:102970000E9407220AC080912004811102C069E2EE
:1029800001C065E3C9010E9412220E94612080E01B
:1029900001C081E0DF91CF9108951092B9008CE0E1
:1029A0008093B8000895EF92FF920F931F93CF93F7
:1029B000DF93182FEB011092BC0084EA8093BC00D7
:1029C0000E94B5227C018091BC0087FD0EC0CF3FE4
:1029D0008FEFD807C1F30E94B5228E199F098C177B
:1029E0009D0788F38EEF9FEF2EC08091B900887FFE
:1029F000883041F08091B900887F803119F08FEFE5
:102A00009FEF21C01093BB0084E88093BC000E941C
:102A1000B5228C018091BC0087FD0CC0CF3F8FEFA9
:102A2000D807C1F30E94B522801B910B8C179D071C
:102A300088F3D8CF8091B900887F883111F0803435
:102A4000F1F680E090E0DF91CF911F910F91FF9020
:102A5000EF9008950F931F93CF93DF93EB01809333
:102A6000BB0084E88093BC000E94B5228C01809159
:102A7000BC0087FD0EC0CF3F8FEFD807C1F30E9487
:102A8000B522801B910B8C179D0788F38EEF9FEF6B
:102A90000CC02091B900287F81E090E0283211F429
:102AA00080E090E0919581959109DF91CF911F9100
:102AB0000F910895CF92DF92EF92FF920F931F93A1
:102AC000CF93DF936B018A017901B9010E94D3147E
:102AD000E6010C0D1D1DC017D10761F424E92093F8
:102AE000BC00DF91CF911F910F91FF90EF90DF908D
:102AF000CF90089597FDF2CFB70189910E942A15D2
:102B0000EACF90932604809325040895E09125044C
:102B1000F0912604309721F00190F081E02D099486
:102B200080E00895E0912504F0912604309799F013
:102B300020912E02222359F02091810627FF07C001
:102B4000DC012C9111962C93119725E02C93028097
:102B5000F381E02D09940895E0912504F091260475
:102B6000309739F022E0DC012C930480F581E02DD0
:102B700009940895209123043091240428173907DB
:102B800071F09093240480932304E0912504F09144
:102B90002604309721F00680F781E02D09940895EE
:102BA00020912104309122042817390771F0909365
:102BB000220480932104E0912504F09126043097AB
:102BC00021F00084F185E02D0994089585B780688F
:102BD00085BF85B7806885BF089508950C94ED156D
:102BE0000C94EE150C94ED150C94ED150E94E61561
:102BF0000E94F2150C94F01581E008950E94AC2219
:102C00000E94CE050E946D230C94F4157F928F9242
:102C10009F92AF92BF92CF92DF92EF92FF920F936B
:102C20001F93CF93DF93CDB7DEB72A970FB6F894F3
:102C3000DEBF0FBECDBF0E9420060E94FC15811191
:102C400011C08FEF89838A831B820E94B522816025
:102C5000782F9D838C8349815A816B818D810E945D
:102C6000B6164FC048E2A42E44E0B42E00E010E0B7
:102C7000702E802F0E94BB056C01F5018190919010
:102C80005F01882699268114910431F40F5F1F4F4C
:102C90000530110569F7D5CF8091CA0481FD0E94E6
:102CA000C40580E0EE24E394F12C94012E213F2111
:102CB000232B09F18E837F82CE20DF2081E0CD2877
:102CC00009F480E088870E94B5228160782F9A8776
:102CD00089874E815F8168858A850E94B616000FBC
:102CE000111FF801E85DFB4F80819181E826F926EC
:102CF000F182E08206C08F5FEE0CFF1C8F30A9F6D8
:102D0000C5CF0E94FF240E94861590912704891741
:102D1000C9F00E948615809327042A960FB6F8946E
:102D2000DEBF0FBECDBFDF91CF911F910F91FF90FE
:102D3000EF90DF90CF90BF90AF909F908F907F905B
:102D40000C944C032A960FB6F894DEBF0FBECDBF8D
:102D5000DF91CF911F910F91FF90EF90DF90CF9077
:102D6000BF90AF909F908F907F900895CF93DF9307
:102D7000CDB7DEB72B970FB6F894DEBF0FBECDBF31
:102D80004F83588769877A878B87DE01119686E0A3
:102D9000FD0111928A95E9F785E0FE0137960190D1
:102DA0000D928A95E1F749815A816B817C818D81F1
:102DB0009E810E94001D2B960FB6F894DEBF0FBEB9
:102DC000CDBFDF91CF910895FC01808191810E9458
:102DD000D41F0895CF93882309F450C0C82F8CEFD7
:102DE0008C0F813AD0F46C2F80911A0290911B02C3
:102DF0000E948721882349F06C2F80911A029091BC
:102E00001B020E9412220E9461206C2F80911A02E4
:102E100090911B020E9407220CC080E28C0F883028
:102E200058F4C77081E001C0880FCA95EAF70E9484
:102E30001620CF910C946120EBE5EC0FE33040F4C9
:102E4000F0E0EF53FC4F808190E0CF910C94BA15E5
:102E5000E8E5EC0FE73150F4F0E0EE0FFF1FED5620
:102E6000FC4F80819181CF910C94D015C03F30F000
:102E70008C2F0E940724CF910C94F424CF910895B5
:102E8000882389F19CEF980F913A40F4682F809144
:102E90001A0290911B020E9412220DC090E2980F1C
:102EA000983058F4877091E001C0990F8A95EAF73D
:102EB000892F0E941C200C9461209BE5980F933071
:102EC00020F480E090E00C94BA1598E5980F9731C3
:102ED00020F480E090E00C94D015803F20F00E9418
:102EE0006F240C94F4240895CF93C82F0E94EA16FF
:102EF000C93349F42FEF87EE93E021508040904092
:102F0000E1F700C000008C2FCF910C94401788236C
:102F100021F00E9416200C9461200895882321F04E
:102F20000E941C200C9461200895CF92DF92EF92B2
:102F3000FF920F931F93CF93DF937C01062FC72F30
:102F4000FC01158112951F70D281D1110E9433208E
:102F50000E940C20882379F0DD2369F080E2800F45
:102F6000883048F082E00E94AB200E940C2091E063
:102F7000D82ED92601C0D12CCC2EC2948FE0C822E5
:102F80008C2D90E0FC01E358FF4F0C946E2D8C2F9C
:102F9000807FCF70882311F0C295C07FDD2399F028
:102FA000CC2309F4C4C180E2800F883010F00111F5
:102FB00004C08C2F0E94162003C08C2F0E94262054
:102FC0000E946120B4C1802F0E944017CC2309F4D5
:102FD000D3C180E2800F883010F0011104C08C2F23
:102FE0000E941C2003C08C2F0E942C200E94612074
:102FF000C3C18C2F807FCF70803211F0C295C07F0B
:10300000002319F00130C9F022C0DD2371F0112333
:1030100041F0113031F40E9446208C2B0E944E204A
:10302000ABC10E9446208C2B1DC0112319F011301A
:1030300009F4A2C10E94572025C0DD2321F01630DB
:1030400008F09AC10EC0153008F096C11BC0DD23F0
:1030500061F0112331F0F701858180FF68C18F7025
:1030600085838C2F0E94871787C1112359F009335C
:1030700009F06EC1FFEF27EE83E0F1502040804061
:10308000E1F764C18C2F0E948E1776C18C2F869534
:103090008695837019F0813061F06EC1DD2321F0D7
:1030A000802F9C2F937002C080E090E00E94BA15A0
:1030B0006BC1DD2321F0802F9C2F937002C080E034
:1030C00090E00E94D01560C1DD23F9F0053F51F07A
:1030D000063F71F0043FA9F480917B0690917C0635
:1030E00081600BC080917B0690917C06826005C058
:1030F00080917B0690917C06846090937C068093FF
:103100007B06802F0E9407241EC0053F51F0063F1A
:1031100071F0043FA9F480917B0690917C068E7F2C
:103120000BC080917B0690917C068D7F05C08091BD
:103130007B0690917C068B7F90937C0680937B0628
:10314000802F0E946F240E94F4241EC18C2F837054
:1031500009F045C0D11114C1402F429546954770E2
:10316000440F440F602F6F70862F90E0A0E0B0E016
:10317000042E04C0880F991FAA1FBB1F0A94D2F700
:1031800004FF10C00FE010E020E030E004C0000FAA
:10319000111F221F331F4A95D2F7009510952095D5
:1031A000309503C000E010E09801C695C695C37045
:1031B000BC01CD01602B712B822B932BC23049F0C7
:1031C00058F4C13019F00E94511EDAC00E943F1E0F
:1031D000D7C00E94631ED4C00E943D1ED1C0DD2313
:1031E00019F08C2F817001C08695882309F4C8C01E
:1031F000402F429546954770440F440F602F6F70E3
:10320000862F90E0A0E0B0E0042E04C0880F991F44
:10321000AA1FBB1F0A94D2F704FF10C00FE010E0F2
:1032200020E030E004C0000F111F221F331F4A9519
:10323000D2F7009510952095309503C000E010E07E
:103240009801C695C695C370BC01CD01602B712B4A
:10325000822B932BC23049F058F4C13019F00E94F0
:10326000161F8EC00E94041F8BC00E94281F88C09A
:103270000E94771E85C0CF70DD2339F08C2F0E940D
:103280009D1E802F0E9487177BC0802F0E948E1763
:103290008C2F0E94BE1E74C0023F01F128F4003F33
:1032A00041F0013FA1F03FC0033FF9F0043F39F185
:1032B0003AC0DD2341F0153008F05EC08C2F8F71CD
:1032C0000E94E31E59C0163008F056C0F7CFDD2328
:1032D00039F08C2F8F710E949D1E4EC0DD23C9F3E3
:1032E0008C2F8F710E94BE1E47C0DD2329F08C2FCA
:1032F0008F710E94881E40C00E94831E3DC0DD2346
:1033000049F0CF718C2F0E949D1E63E08C2F0E948C
:10331000962032C081E00E94AB20123068F182E03A
:103320000E94AB2029C0DD2331F0112391F2802FC0
:103330000E94EA1621C0112399F2093349F49FEF44
:10334000E7EEF3E09150E040F040E1F700C000000C
:10335000802F0E94401710C04C2F4F70602FC70164
:103360000E94AD030E94AE1D0FC04C2F4F70602F06
:10337000C7010E94B00308C088EF8C0D843020F490
:103380000E9486150E944C03DD20C9F00E9408208F
:1033900080FD15C0F70112820E9402200E949D1E2E
:1033A000C7010E94E8190E940220DF91CF911F916E
:1033B0000F91FF90EF90DF90CF900C94BE1EDF91A5
:1033C000CF911F910F91FF90EF90DF90CF900895D4
:1033D0000F931F93CF93DF93EC01988189812B8109
:1033E0003C81232B31F08F3F31F481E09F3F19F472
:1033F00003C081E001C080E080FD13C0CE010E94C7
:103400006503882371F0688179818A810E94DF1FBA
:103410008C010E943A1F0E942B1EB801CE010E940F
:103420009517DF91CF911F910F9108950E9433203E
:103430000E9443200E9461200E941E260E94F424C4
:1034400080E090E00E94BA1580E090E00C94D015E6
:1034500080911A0290911B020E941D220C94161A50
:103460000E9423200C94281AE92FE295EF704E2F2A
:1034700050E0FA013297EE30F105B0F4E357FF4F18
:103480000C946E2D803F91F018F4883E68F40EC0C5
:10349000843F51F40BC0883E48F0813F29F406C0B8
:1034A00093FB882780F9089580E0089581E00895CE
:1034B0000E94D41F0E94341A0895CF93DF9300D046
:1034C00000D01F92CDB7DEB70F900F900F900F90E6
:1034D0000F90DF91CF910895CF93DF9300D000D06C
:1034E00000D0CDB7DEB726960FB6F894DEBF0FBE7C
:1034F000CDBFDF91CF9108951F93CF93DF93C091FC
:10350000330416E080913404C81799F0D0E01C9F72
:10351000F0011D9FF00D1124EB5CFB4F40815181A8
:1035200062817381848195810E946C1A2196C77093
:10353000E9CFDF91CF911F9108954091650450919B
:1035400066046091670470916804809169049091A9
:103550006A040C946C1ACF9380916A0482958F70E0
:1035600009F05FC080916704882309F45AC08091F4
:103570003304B091340470916504A09166044091C5
:1035800068045091690491E07F3F09F090E0692F51
:10359000C6E08B1709F445C04115510521F0AF3F36
:1035A00021F020E003C021E001C0262F90E020FDA3
:1035B00035C0C89FF001C99FF00D1124EB5CFB4F93
:1035C00021812A132BC02081271328C02281211199
:1035D00025C0238134812417350710F42150310987
:1035E000241B350B283C3105C8F420916A042F7048
:1035F000206120936A0426E0289FF001299FF00DA6
:103600001124E65CFB4F80818F708061808385E6AA
:1036100094E00E94E819CF910C947C1A019687706F
:10362000B8CFCF910895AF92BF92CF92DF92EF9231
:10363000FF920F931F93CF93DF93CDB7DEB76197C0
:103640000FB6F894DEBF0FBECDBF8C0185E0F80148
:10365000DE011D9601900D928A95E1F7D8014C91FB
:1036600011965C9111971296EC90309165046091DF
:1036700066048091680490916904009731F06F3F6F
:1036800031F421E03F3F19F403C021E001C020E004
:10369000B22FB170BB2E20FD60C1F801C380D48071
:1036A000A0906704AA2009F4EEC020916A04C8160D
:1036B000D90628F0D601A81BB90BCD0104C080950E
:1036C00090958C0D9D1DFF24F394883C910580F00E
:1036D000F12C207F09F09CC07C2DD98AC88A6E2DE0
:1036E00089890E945D1A85E694E00E94E8192DC13F
:1036F000822F807F09F054C0561314C0431312C0A8
:10370000FE2CE1100FC02F70206120936A040E94EC
:103710009D1A85E694E00E94E81980916A04F801F8
:1037200085835CC1CD2831F05F3F31F481E04F3FAC
:1037300019F403C081E001C080E080FD03C081E096
:103740008E2502C080E090E0F82FF170FF2E80FF00
:103750001CC0809133042091340436E0821709F4B0
:103760001AC190E0389FF001399FF00D1124EB5CF5
:10377000FB4F6181561306C06081461303C062810E
:10378000E61203C001968770E9CFFE2CEE2009F403
:1037900025C180916A04816080936A04F12C1EC166
:1037A000561309C0431307C0E11005C080916A0495
:1037B000F8018583A4C04D875E878D859E850E9414
:1037C000581A882379F1EE2069F120916A04822F3A
:1037D00082958F7090E0029774F0809165049091CB
:1037E000660498878F831986DB86CA862C87CE016C
:1037F00007960E94E81986E0F801A5E6B4E001907A
:103800000D928A95E1F70E94AB1A0E949D1A0DC095
:10381000561771F04D875E878D859E850E94581AD8
:1038200081111AC0C8010E94E819FF24F394D6C080
:103830004313F0CFE110EECF80916A04F801858345
:10384000C8010E94E81986E0E5E6F4E0DF011D9278
:103850008A95E9F7FA2CC2C0EE2021F320916A0480
:10386000822F82958F7090E002972CF280916504F0
:10387000909166049A8389831B82DD82CC822E8399
:10388000CE010196B6CFC816D90628F0F601E81B7E
:10389000F90BCF0104C0809590958C0D9D1D883C3F
:1038A000910548F0F12C7C2DD98AC88A6E2D898922
:1038B0000E945D1A4AC0FE2CEE2009F4B3CF5613C5
:1038C00033C0431331C020916A0420FD24C0822FED
:1038D00082958F70482F50E041155105E1F0D801D5
:1038E00015962C9315974F30510549F08F5F982FFF
:1038F0009295907F822F8F70892B15968C93C8019B
:103900000E94E81986E0F801A5E6B4E001900D9266
:103910008A95E1F73DC086E0F801A5E6B4E00190A4
:103920000D928A95E1F75AC04D875E878D859E85F9
:103930000E94581A81115FCF80916A048160809340
:103940006A04C8010E94E81949C0E5E6F4E086E08F
:10395000DF011D928A95E9F71BC0EE2009F462CFC2
:103960004D875E878D859E850E94581AF82E882384
:1039700009F458CF86E0F801A5E6B4E001900D9275
:103980008A95E1F785E694E00E94E4160E94AB1A5E
:103990000E949D1A23C04D875E878D859E850E945B
:1039A000D41F292F22952F70223028F49F7039F0D0
:1039B000811105C00BC0243028F49F7049F4805E4B
:1039C000883020F0C8010E94E819BF2CFB2C06C0EB
:1039D000D80115969C91907F91F7F8CF8F2D619625
:1039E0000FB6F894DEBF0FBECDBFDF91CF911F9110
:1039F0000F91FF90EF90DF90CF90BF90AF90089520
:103A00001F93CF93DF93CDB7DEB72C970FB6F89403
:103A1000DEBF0FBECDBF4F83588769877A878B87FC
:103A20009C87CE0107960E94131B8823D1F09F81AB
:103A300088852A853B85232B31F08F3F31F481E047
:103A40009F3F19F403C081E001C080E080FD47C0C2
:103A50004F81588569857A858B859C850E946C1A73
:103A60003EC086E0FE013796DE01119601900D9270
:103A70008A95E1F7FF81E8856A857B856115710587
:103A800031F0EF3F31F481E0FF3F19F403C081E0F2
:103A900001C080E080FD23C02091340430E0C901E2
:103AA0000196877099274091330450E08417950759
:103AB000F1F1F983EA837D836C8396E0929FD001D4
:103AC000939FB00D1124AB5CBB4FFE01319601906A
:103AD0000D929A95E1F7809334040E947C1A16E0C7
:103AE0008091330490913404891771F1189FC001BB
:103AF00011248B5C9B4F0E94131B882329F1E091BA
:103B000033041E9FF0011124EB5CFB4F4081518177
:103B100062817381848195810E946C1A8091330443
:103B200090E001968770992780933304D9CF0E9443
:103B3000301A1092340410923304E5E6F4E086E083
:103B4000DF011D928A95E9F72C960FB6F894DEBF37
:103B50000FBECDBFDF91CF911F910895EF92FF92DD
:103B60000F931F93CF93DF938C01892B09F46CC0C3
:103B7000F12CEE24E394E8012196F8018491843736
:103B800040F4843008F051C0813081F0823019F166
:103B90005BC0853709F444C0A8F19CE7980F9037C3
:103BA00008F052C08F770E94401741C00E5F1F4F30
:103BB000FE01849190E2980F983050F48770FE2DAA
:103BC00001C0FF0F8A95EAF78F2F0E94362014C09C
:103BD0000E94EA162DC00E5F1F4FFE01849190E2F5
:103BE000980F983060F48770FE2D01C0FF0F8A9502
:103BF000EAF78F2F0E943C200E94612019C00E948A
:103C0000401716C00E5F1F4FFE01C491CC2381F0F8
:103C10008FE99FE00197F1F700C00000C150F6CF97
:103C20000E5F1F4FFE01F49003C00E94EA168E0142
:103C30008F2D882309F49FCFEFE9FFE03197F1F74B
:103C400000C000008150F5CFDF91CF911F910F91FF
:103C5000FF90EF900895089508950C942C1E0C94F5
:103C60002D1E0E942F1E6093A1047093A2048093C6
:103C7000A3049093A4040C94161A0C94311E0F9371
:103C80001F930091A1041091A2042091A3043091EC
:103C9000A404602B712B822B932B1F910F910C94FA
:103CA000311E0F931F930091A1041091A204209143
:103CB000A3043091A40460237123822393231F91D2
:103CC0000F910C94311E0F931F930091A10410913A
:103CD000A2042091A3043091A404602771278227B5
:103CE00093271F910F910C94311E0C942C1E0E944F
:103CF000751E60939D0470939E0480939F0490931F
:103D0000A0040C94161A60E070E0CB010C94771EAE
:103D10000F931F9341E050E060E070E08A019B0147
:103D200004C0000F111F221F331F8A95D2F7C9014B
:103D3000B8011F910F910C94771E0F931F9341E0D0
:103D400050E060E070E004C0440F551F661F771F0D
:103D50008A95D2F780919D0490919E04A0919F0432
:103D6000B091A0048A019B01082B192B2A2B3B2B15
:103D7000C901B8011F910F910C94771E0F931F93E7
:103D800041E050E060E070E004C0440F551F661F42
:103D9000771F8A95D2F740955095609570958091E0
:103DA0009D0490919E04A0919F04B091A0048A016B
:103DB0009B01082319232A233B23C901B8011F9122
:103DC0000F910C94771E0F931F9341E050E060E039
:103DD00070E004C0440F551F661F771F8A95D2F705
:103DE00080919D0490919E04A0919F04B091A004A5
:103DF0008A019B01082719272A273B27C901B801F7
:103E00001F910F910C94771E0F931F9300919D04A7
:103E100010919E0420919F043091A004602B712B7F
:103E2000822B932B1F910F910C94771E0F931F934E
:103E300000919D0410919E0420919F043091A00454
:103E400060237123822393231F910F910C94771E7B
:103E50000F931F9300919D0410919E0420919F0445
:103E60003091A00460277127822793271F910F911B
:103E70000C94771E08952FE0929F800D1124E82F57
:103E8000E695E695E695877051E001C0550F8A9555
:103E9000EAF785E0E89FF0011124E559FB4F20E0A7
:103EA00030E070E04081CB01022E02C096958795EC
:103EB0000A94E2F781708195842785238427819372
:103EC0002F5F3F4F2530310569F708952FE0929F0E
:103ED000800D1124682F669566956695982F9770CA
:103EE00085E0689FB001112440E050E080E0FB01D4
:103EF000E40FF51FE559FB4F208130E0092E02C089
:103F0000369527950A94E2F721703327042E01C0D5
:103F1000220F0A94EAF7822B4F5F5F4F453051051D
:103F200031F70895BF92CF92DF92EF92FF920F93F5
:103F30001F93CF93DF938C01C0909D04D0909E047B
:103F4000E0909F04F090A0048091A1049091A204BD
:103F5000A091A304B091A404C82AD92AEA2AFB2A72
:103F6000CFE1D0E0D701C6010C2E04C0B695A795CD
:103F7000979587950A94D2F780FD04C0219790F712
:103F8000B12C07C0BC2EB8018C2F0E94CC03019726
:103F9000A9F38B2DDF91CF911F910F91FF90EF909F
:103FA000DF90CF90BF900895CF93DF93EC010E94F4
:103FB000921FBE010E94CC03DF91CF9108951F9301
:103FC000CF93DF93EB0190913204992321F0CB0141
:103FD0000E94D41F13C0882349F0CB010E94921F76
:103FE000182F682FCE010E943B1F04C0CB010E94F6
:103FF000661F182FBE01812F0E94CC03DF91CF9145
:104000001F9108958091A5048595859585950895BE
:104010008091A504877008959091A504977081E020
:1040200009F480E008958091C90408959091C9042D
:10403000892B8093C904089580959091C9048923A0
:104040008093C90408951092C90408959091C804FA
:10405000892B8093C804089580959091C804892382
:104060008093C80408951092C80408959091C704DD
:10407000892B8093C704089580959091C704892364
:104080008093C70408951092C70408958091A604F0
:10409000089508950C9449200C944A209091A60408
:1040A000981721F08093A6040C944C2008958091D9
:1040B000A604882329F01092A60480E00C944C20DA
:1040C0000895E0911A02F0911B028091C904808347
:1040D000E0911A02F0911B0290818091C804892B13
:1040E0008083E0911A02F0911B0290818091C704B5
:1040F000892B80838091A604882381F0E0911A02A5
:10410000F0911B029081892B808380911A029091FB
:104110001B020E94712181110E94572080911A0276
:1041200090911B020C9492150C94492098E0899F61
:1041300090011124262B2093A5040E949D1E80919E
:10414000A5048595859585950C9494201092A504D9
:1041500080E00C9494202091A50480958223809384
:10416000A504982F977079F430E0482F082E000CA2
:10417000550B2417350739F08595859585950E944F
:10418000BE1E0C94A62008956FEF7FEF80E090E0B4
:104190000C94EB2D80E090E00E94B72D21E08C3E46
:1041A0009E4F09F020E0822F089582E090E00C9469
:1041B000AF2D83E090E00C94AF2DCF9384E090E09E
:1041C0000E94AF2DC82F81E290E00E94AF2D2C2FCE
:1041D00030E0A901582BCA01CF910895CF93C92F80
:1041E000682F84E090E00E94CD2D6C2F81E290E05A
:1041F000CF910C94CD2DAB01BC018FE090E00C94DD
:10420000DF2DAB01BC0183E190E00C94DF2D60E079
:1042100070E0CB010C94012160E070E0CB010E94C2
:10422000FB200C9407216CEE7EEF80E090E00E9472
:10423000EB2D60E082E090E00E94CD2D60E083E015
:1042400090E00E94CD2D1092A1041092A204109231
:10425000A3041092A40460E084E090E00E94CD2DBD
:1042600060E081E290E00E94CD2D60E085E090E08A
:104270000E94CD2D60E086E090E00E94CD2D6FEF92
:1042800087E090E00E94CD2D40E050E0BA0188E048
:1042900090E00E94DF2D60E08DE090E00E94CD2D47
:1042A00040E050E0BA0188E190E00E94DF2D60E03C
:1042B00087E190E00E94CD2D40E050E0BA018CE112
:1042C00090E00E94DF2D60E080E290E00E94CD2D22
:1042D0000C940C210C941321682F8EE090E00C9428
:1042E000CD2DFC01329680912E02882331F08091F1
:1042F000810687FF02C09EE101C096E080E09150F8
:1043000028F021912223D9F38F5FF9CF08956623F6
:1043100051F120912E022223E9F02091810627FFFE
:1043200019C0462F4695469546954E31E0F4677084
:1043300021E030E002C0220F331F6A95E2F7FC0152
:10434000E40FF11D828190E02823392381E0232BA3
:1043500069F409C0FC01329608962191621729F090
:10436000E817F907D1F780E0089581E008959C01EE
:10437000FC0132969FEF80E04191461789F09F3F04
:1043800019F4411101C0982F8F5F8630A9F79F3F24
:1043900039F0F901E90FF11D97FDFA95628308954F
:1043A00008959C012A5F3F4FFC014281461301C0E2
:1043B0001282019682179307B9F70895262F269542
:1043C000269526952E3168F4FC01E20FF11D6770E9
:1043D00021E030E001C0220F6A95EAF78281282BA4
:1043E00022830895262F2695269526952E3170F442
:1043F000FC01E20FF11D677021E030E001C0220FE7
:104400006A95EAF7209582812823228308952091D6
:104410002E02222329F02091810627FD0C94DE2113
:104420000C94B72120912E02222329F0209181069D
:1044300027FD0C94F2210C94D12120912E02FC0135
:104440003296222331F08091810687FF02C08EE1EF
:1044500001C086E0DF011D928A95E9F7089508956D
:104460000C942F220C942F22CF930E9432220E9470
:1044700020060E943022C0E08C2F0E94BB05892BB1
:1044800029F4CF5FC530C1F780E001C081E0CF9152
:1044900008950C942F220E94CE02809187068430CA
:1044A00049F11092CB0420E488E190E00FB6F89433
:1044B000A895809360000FBE2093600080E00E946A
:1044C0004C030E94CE0283B7817F846083BF83B791
:1044D000816083BF7894889583B78E7F83BF0FB642
:1044E000F894A89580916000886180936000109294
:1044F00060000FBE08950E94301A0E9486150E9427
:104500004C030C94D3021F920F920FB60F921124FA
:104510008F939F93AF93BF938091CB04811113C06E
:1045200080917D0690917E06A0917F06B0918006D5
:104530004196A11DB11D80937D0690937E06A093A8
:104540007F06B0938006BF91AF919F918F910F909E
:104550000FBE0F901F90189582E084BD93E095BD2B
:104560009AEF97BD80936E0008952FB7F8948091CD
:104570007D0690917E06A0917F06B09180062FBFA8
:1045800008952FB7F89460917D0670917E06809112
:104590007F06909180062FBF0895CF92DF92EF9211
:1045A000FF920F931F932FB7F89440917D0650917F
:1045B0007E0660917F06709180062FBF6A017B01A5
:1045C000EE24FF248C0120E030E0C016D106E20684
:1045D000F30610F4415051099A01281B390BC90107
:1045E0001F910F91FF90EF90DF90CF900895CF92A1
:1045F000DF92EF92FF920F931F932FB7F894C09022
:104600007D06D0907E06E0907F06F09080062FBF5A
:1046100097018601061B170B280B390BC616D70608
:10462000E806F90618F0C901B80106C0C901B801C9
:1046300061507109810991091F910F91FF90EF90CD
:10464000DF90CF90089578941F920F920FB60F923B
:1046500011248F939F93AF93BF9380917D06909188
:104660007E06A0917F06B09180060196A11DB11D26
:1046700080937D0690937E06A0937F06B09380067C
:10468000BF91AF919F918F910F900FBE0F901F9090
:10469000189581E08093E00080E28093D80010922A
:1046A000C9008FE19EE40197F1F700C0000087E0A8
:1046B00090EBDC018093900690939106A093920674
:1046C000B09393069CE088E10FB6F894A895809388
:1046D00060000FBE90936000FFCF0E94CA2081113E
:1046E00002C00E946A210E94D5208093CA040E94C1
:1046F000DD2090938206809381060E94D920682F46
:1047000070E080E090E00C943D1E8091D30480FF27
:104710000BC06091210285E0689FB001112475955E
:104720006795759567952BC081FF09C0609121023F
:1047300085E0689FB00111247595679520C082FFC0
:1047400007C06091210285E0689FB001112417C065
:104750009091D2049923D1F060912002961788F7A6
:104760002091210285E0289F90011124929FA001B1
:10477000939F500D112470E0CA010E943B2D6038B8
:10478000710540F46115710519F406C065E070E02B
:10479000862F08958FE7089581E008958091D304CE
:1047A00080FF08C060911D0270E075956795759552
:1047B000679521C081FF06C060911D0270E075956C
:1047C000679519C082FF04C060911D0270E010C09F
:1047D0009091D204992399F060911C029617A0F74A
:1047E00080911D02899FC001112470E00E943B2D21
:1047F0006038710540F46115710519F406C061E077
:1048000070E0862F08958FE7089581E00895803F36
:1048100021F40E948523819504C0813F29F40E94E0
:1048200085238093D7040895823F21F40E94852335
:10483000819504C0833F29F40E9485238093D60488
:104840000895893F19F40E94CE2305C08A3F31F4B0
:104850000E94CE2381958093D80408958B3F21F444
:104860000E94CE23819504C08C3F29F40E94CE2360
:104870008093D9040895843F21F48091D504816008
:1048800017C0853F21F48091D504826011C0863F16
:1048900021F48091D50484600BC0873F21F480917E
:1048A000D504886005C0883F31F48091D5048061CB
:1048B0008093D50408958D3F21F48091D3048160C5
:1048C0000BC08E3F21F48091D304826005C08F3FDE
:1048D00029F48091D30484608093D3040895803FA9
:1048E00039F48091D70487FF6CC01092D70469C057
:1048F000813F29F48091D7041816BCF362C09091CF
:10490000D604823F29F497FF5CC01092D60459C0A8
:10491000833F19F41916CCF354C0893F41F48091B8
:10492000D80418160CF04DC01092D8044AC08A3F23
:1049300029F48091D80487FF44C0F6CF8B3F39F427
:104940008091D90487FF3DC01092D9043AC08C3FB2
:1049500029F48091D9041816BCF333C0843F21F4A4
:104960008091D5048E7F17C0853F21F48091D504B6
:104970008D7F11C0863F21F48091D5048B7F0BC0C1
:10498000873F21F48091D504877F05C0883F31F4AB
:104990008091D5048F7E8093D50413C08D3F21F480
:1049A0008091D3048E7F0BC08E3F21F48091D3047D
:1049B0008D7F05C08F3F29F48091D3048B7F809336
:1049C000D3048091D60481110EC08091D704811147
:1049D0000AC08091D804811106C08091D904811148
:1049E00002C01092D204089584ED94E00E94AC15A8
:1049F0000E94B5229093D1048093D0040895CF9360
:104A0000DF9300D000D000D0CDB7DEB786E0E4ED74
:104A1000F4E0DE01119601900D928A95E1F7809104
:104A2000D604811105C08091D704882309F47AC087
:104A30008091CE049091CF040E94CD22AC01909140
:104A4000D204992339F02091220230E0241735074F
:104A500058F068C0209123028AE0289F9001112419
:104A60002417350718F05EC09F3F19F09F5F9093A1
:104A7000D2041092D8041092D9048091D60418164A
:104A800024F40E9485238093D6048091D60487FF66
:104A900005C00E94852381958093D6048091D70418
:104AA000181624F40E9485238093D7048091D7049C
:104AB00087FF05C00E94852381958093D70430919C
:104AC000D6043323E1F02091D7042223C1F045EB33
:104AD0003403C0011124992319F09093D60403C024
:104AE00081E08093D60435EB2303C0011124992380
:104AF00019F09093D70403C081E08093D7040E94FB
:104B0000F4248091D0049091D1049093CF048093A9
:104B1000CE0486E0FE013196A4EDB4E001900D9242
:104B20008A95E1F78091D804811105C08091D9045C
:104B3000882309F47AC08091CC049091CD040E941E
:104B4000CD22AC019091D204992339F020911E021C
:104B500030E02417350758F068C020911F028AE022
:104B6000289F900111242417350718F05EC09F3F3D
:104B700019F09F5F9093D2041092D6041092D7043C
:104B80008091D804181624F40E94CE238093D80470
:104B90008091D80487FF05C00E94CE238195809321
:104BA000D8048091D904181624F40E94CE2380934F
:104BB000D9048091D90487FF05C00E94CE23819536
:104BC0008093D9043091D8043323E1F02091D904A3
:104BD0002223C1F045EB3403C0011124992319F0BD
:104BE0009093D80403C081E08093D80435EB23036D
:104BF000C0011124992319F09093D90403C081E0D6
:104C00008093D9040E94F4248091D0049091D1041F
:104C10009093CD048093CC0486E0FE013196A4ED00
:104C2000B4E001900D928A95E1F726960FB6F894BC
:104C3000DEBF0FBECDBFDF91CF910895E4EDF4E06C
:104C400086E0DF011D928A95E9F71092D204109256
:104C5000D30408958091FA040895CF93DF9300D090
:104C60001F92CDB7DEB790918706943019F58983EE
:104C70007B836A8382E08093E9008FEF9091E80064
:104C8000815095FD06C095ED9A95F1F700008111D0
:104C9000F5CF8091E80085FF0DC040E050E063E073
:104CA00070E0CE0101960E9489288091E8008E77FD
:104CB0008093E8000F900F900F90DF91CF910895AF
:104CC000CF93DF93EC010E946C28823011F0843086
:104CD00031F4BE0184E0DF91CF910C942D26DF9159
:104CE000CF910895BC0183E00C942D26CF93DF93E0
:104CF000EC010E946C28823011F08430F9F482E0DB
:104D00008093E9008FEF9091E800815095FD06C0F7
:104D100095ED9A95F1F700008111F5CF8091E800AB
:104D200085FF0CC040E050E066E070E0CE010E94DC
:104D300089288091E8008E778093E800DF91CF91F9
:104D40000895CF93DF93EC010E946C28823011F01C
:104D50008430D9F580912E02882339F08091810624
:104D600087FF03C060E282E002C068E081E08093D8
:104D7000E9008FEF9091E800815095FD06C095ED18
:104D80009A95F1F700008111F5CF8091E80085FF39
:104D90001CC080912E02811105C040E050E068E007
:104DA00070E003C070E040E050E0CE010E9489282E
:104DB0008091E8008E778093E80080E2FE01AAED02
:104DC000B4E001900D928A95E1F7DF91CF910895BB
:104DD00080918606811109C00E941A2A0E94772AB2
:104DE0008091E20084608093E2000895109286062C
:104DF0000895089508950C947B2242E061EC81E0CF
:104E00000E94932942E261EC82E00C949329809104
:104E10008906833009F460C030F4813071F082304B
:104E200009F499C008958A3009F485C08B3009F4DB
:104E30006BC0893009F0A7C020C080918806813AF4
:104E400009F0A1C08091E800877F8093E8008091FD
:104E50008C0690918D06892B21F460E28AED94E016
:104E600003C060E080E090E070E00E94D428809170
:104E7000E8008B778093E80008958091880681325E
:104E800009F081C080918C0690918D06029708F000
:104E90007AC08091E800877F8093E8008091E800E5
:104EA00082FD05C0809187068111F8CF6CC02091EA
:104EB000F3008091F20090E0922B029729F4809108
:104EC000F1008B7F813021F48091F1008093FA040E
:104ED0008091E8008B7753C080918806813A09F071
:104EE00052C080918C0690918D06892B09F04BC0A1
:104EF0008091E800877F8093E8008091E80080FF40
:104F0000FCCF80912E0236C0809188068132D9F57F
:104F100080918C0690918D06892BA9F58091E800EF
:104F2000877F8093E8000E94C82980918A06809339
:104F30002E020C94301A80918806813221F58091DE
:104F4000E800877F8093E8000E94C82980918B0643
:104F50008093FB04089580918806813AA1F48091A2
:104F6000E800877F8093E8008091E80080FFFCCF15
:104F70008091FB048093F1008091E8008E7780930C
:104F8000E8000C94C829089584B7877F84BF0FB6C2
:104F9000F894A895809160008861809360001092D9
:104FA00060000FBE90E080E80FB6F8948093610037
:104FB000909361000FBE0E94F6150E941A2A0E946B
:104FC000772A8091E20084608093E20078940E94C6
:104FD0000C2D0E94FE1584E292E00E9481158091C2
:104FE0008706853069F40E944B22809185068823CC
:104FF000B1F30E943422882391F30E947328EFCFEB
:105000000E940616ECCF0C940528292F3327233055
:105010003105C9F060F42130310581F022303105CD
:1050200009F04AC08BE390E024EB33E049C0213221
:10503000310511F12232310579F13EC082E190E073
:105040002FEE33E03DC099278130910561F040F0AB
:105050008230910559F0039779F5E6E7F3E008C04F
:10506000E0EBF3E005C0EEE9F3E002C0ECE7F3E0CB
:10507000849190E09F0124C06115710541F0613079
:105080007105D1F489E090E02FED33E019C089E09B
:1050900090E026EC33E014C06115710541F06130F9
:1050A000710551F48CEB90E021E034E009C080E41C
:1050B00090E02DEB34E004C080E090E020E030E0B0
:1050C000FA0131832083089580918706843011F09E
:1050D00081E0089582E008958091FC04811102C06E
:1050E0000C946428089580E189BD82E189BD09B4EA
:1050F00000FEFDCF8091D8008F7D8093D8008091F5
:10510000E00082608093E0008091E00081FDFCCFB0
:105110000895CF92DF92EF92FF920F931F93CF9358
:10512000DF93EC018B017A010E94E729811133C0E2
:10513000E114F10439F0F70180819181081B190B0A
:10514000C80FD91FC12CD12C0115110519F180915F
:10515000E80085FD16C08091E8008E778093E80016
:10516000E114F10449F0F70180819181C80ED91E44
:10517000D182C08285E00FC00E94E729882321F3F5
:105180000AC089918093F10001501109FFEFCF1AF5
:10519000DF0ADACF80E0DF91CF911F910F91FF906E
:1051A000EF90DF90CF90089520918E0630918F067A
:1051B0002617370748F06115710539F42091E8008A
:1051C0002E772093E80001C0B901FC0120E06115B1
:1051D000710579F1809187068823F1F18530F1F12D
:1051E0008091E80083FD3CC08091E80082FD2EC0E4
:1051F0008091E80080FFEBCF2091F3008091F200D6
:1052000090E0922B6115710551F08830910538F4CA
:1052100021912093F100615071090196F3CF21E0B3
:10522000089709F020E08091E8008E778093E800ED
:10523000CECF2111CFCF0AC080918706882361F09D
:10524000853061F08091E80083FD0AC08091E8001C
:1052500082FFF2CF80E0089582E0089583E0089510
:1052600081E0089520918E0630918F06261737072A
:1052700048F06115710539F42091E8002E772093EC
:10528000E80001C0B901FC0120E06115710591F150
:1052900080918706882309F440C0853009F43FC017
:1052A0008091E80083FD3DC08091E80082FD2FC021
:1052B0008091E80080FFE9CF2091F3008091F20017
:1052C00090E0922B6115710559F08830910540F4FA
:1052D00024912093F1003196615071090196F2CF2B
:1052E00021E0089709F020E08091E8008E77809314
:1052F000E800CBCF2111CCCF0AC08091870688234C
:1053000061F0853061F08091E80083FD0AC08091F2
:10531000E80082FFF2CF80E0089582E0089583E004
:10532000089581E00895982F973068F59093E900EB
:10533000981739F07091EC002091ED005091F00039
:1053400003C0242F762F50E021FD02C09F5FECCFD9
:105350003091EB003E7F3093EB003091ED003D7FCC
:105360003093ED003091EB0031603093EB0070939F
:10537000EC002093ED005093F0002091EE0027FD0B
:10538000E5CF80E008958F708093E90081E0089573
:105390008091880687FF11C08091E80082FD05C0DA
:1053A000809187068111F8CF11C08091E8008B773A
:1053B0000BC080918706882349F08091E80080FF28
:1053C000F8CF8091E8008E778093E80008952091CF
:1053D000E4003091E50095E64091EC00842F817067
:1053E00040FF23C08091E80080FD1DC080918706AA
:1053F000882399F0853099F08091EB0085FD11C0EC
:105400004091E4005091E5002417350729F39150AD
:1054100011F09A01E1CF84E0089582E0089583E0DD
:10542000089581E0089580E008954091E80042FFEA
:10543000DDCF08950E94882A0E94902AE0EEF0E0D5
:10544000808181608083E8EDF0E080818F778083C8
:1054500019BCA7EDB0E08C918E7F8C9380818F7EFC
:1054600080831092860608950F931F93CF93DF9346
:105470000E94882A0E94902AC8EDD0E088818F7708
:10548000888388818068888388818F7D888319BC20
:105490001092870610928306109285061092840659
:1054A00000EE10E0F80180818B7F8083888181602D
:1054B000888342E060E080E00E949329E1EEF0E022
:1054C00080818E7F8083E2EEF0E080818160808346
:1054D000808188608083F80180818E7F80838881CD
:1054E00080618883DF91CF911F910F910895E8ED3E
:1054F000F0E080818F7E8083E7EDF0E08081816045
:10550000808384E082BF81E0809386060C94342AF5
:10551000E8EDF0E080818E7F80831092E2000895B4
:105520001092DA001092E10008951F920F920FB6C8
:105530000F9211242F933F934F935F936F937F9319
:105540008F939F93AF93BF93EF93FF938091E1006D
:1055500082FF0BC08091E20082FF07C08091E100D2
:105560008B7F8093E1000E940B2D8091DA0080FFF9
:105570001FC08091D80080FF1BC08091DA008E7F11
:105580008093DA008091D90080FF0DC080E189BD51
:1055900082E189BD09B400FEFDCF81E080938706DA
:1055A0000E94E82605C019BC109287060E94F626C4
:1055B0008091E10080FF19C08091E20080FF15C05A
:1055C0008091E2008E7F8093E2008091E200806112
:1055D0008093E2008091D80080628093D80019BC4B
:1055E00085E0809387060E94FA268091E10084FF7F
:1055F00030C08091E20084FF2CC080E189BD82E14F
:1056000089BD09B400FEFDCF8091D8008F7D8093C5
:10561000D8008091E1008F7E8093E1008091E200CC
:105620008F7E8093E2008091E20081608093E200AF
:1056300080918306882311F084E007C08091E30005
:1056400087FD02C081E001C083E0809387060E944D
:10565000FB268091E10083FF29C08091E20083FF57
:1056600025C08091E100877F8093E10082E08093F4
:105670008706109283068091E1008E7F8093E1007F
:105680008091E2008E7F8093E2008091E200806151
:105690008093E20042E060E080E00E9493298091E4
:1056A000F00088608093F0000E94F926FF91EF914E
:1056B000BF91AF919F918F917F916F915F914F912A
:1056C0003F912F910F900FBE0F901F9018951F9232
:1056D0000F920FB60F9211242F933F934F935F9326
:1056E0006F937F938F939F93AF93BF93CF93DF93EA
:1056F000EF93FF93C091E900CF708091EC00D82F19
:10570000D17080FDD0E81092E9008091F000877F91
:105710008093F00078940E94AB2B1092E900809166
:10572000F00088608093F000CD2BCF70C093E9002B
:10573000FF91EF91DF91CF91BF91AF919F918F91A9
:105740007F916F915F914F913F912F910F900FBE7D
:105750000F901F9018951F93CF93DF93CDB7DEB7AF
:10576000AA970FB6F894DEBF0FBECDBFE8E8F6E00B
:105770008091F100819326E0E039F207C9F70E9499
:1057800007278091E80083FF2EC1809188069091C1
:105790008906492F50E04A30510508F024C1FA012A
:1057A000E556FF4F0C946E2D803821F0823809F0B9
:1057B0001AC108C08091840690918506992389F0CA
:1057C00082600FC080918C068F70873008F00BC10B
:1057D0008093E9008091EB0085FB882780F9109287
:1057E000E9009091E800977F9093E8008093F100A2
:1057F0001092F100D1C0282F2D7F09F0F4C088232A
:1058000019F0823061F0EFC080918A06813009F092
:10581000EAC0933009F080E0809385062EC0809125
:105820008A0681112AC080918C068F702FEF280F75
:10583000263008F0D8C08093E9002091EB0020FFCB
:105840001CC0933021F48091EB00806214C09091D1
:10585000EB0090619093EB0021E030E0A90102C0E1
:10586000440F551F8A95E2F74093EA001092EA0030
:105870008091EB0088608093EB001092E9008091AA
:10588000E800877F8093E8000E94C829ACC081119E
:10589000AAC010918A061F778091E3008078812B3F
:1058A0008093E3008091E800877F8093E8000E9466
:1058B000C8298091E80080FFFCCF8091E3008068D8
:1058C0008093E300111102C082E001C083E0809365
:1058D000870689C08058823008F085C080918A068A
:1058E00090918B068C3D53E0950779F583E08A8390
:1058F0008AE289834FB7F894DE01139620E03EE0F8
:1059000051E2E32FF0E050935700E49120FF03C0F1
:10591000E295EF703F5FEF708E2F90E0EA3010F06D
:10592000C79601C0C0968D939D932F5F243149F790
:105930004FBF8091E800877F8093E8006AE270E0C3
:10594000CE0101960E94D42816C060918C067091F9
:105950008D06AE014F5F5F4F0E940328BC01892B6B
:1059600009F441C09091E800977F9093E800898105
:105970009A810E9432298091E8008B778093E80019
:1059800032C0803881F58091E800877F8093E800FD
:10599000809183068093F1008091E8008E7772CF2A
:1059A000811121C080918A0690918B0699270297D8
:1059B000D4F48091E800877F8093E80080918A0684
:1059C000809383060E94C82980918306811106C0B6
:1059D0008091E30087FD02C081E001C084E08093F4
:1059E00087060E94FD268091E80083FF0AC080910F
:1059F000E800877F8093E8008091EB0080628093CD
:105A0000EB00AA960FB6F894DEBF0FBECDBFDF91B4
:105A1000CF911F9108950895CF9380918706882391
:105A2000A1F0C091E900CF709091EC00892F8170B6
:105A300090FD80E8C82B1092E9008091E80083FD7A
:105A40000E94AB2BCF70C093E900CF910895AA1BA1
:105A5000BB1B51E107C0AA1FBB1FA617B70710F059
:105A6000A61BB70B881F991F5A95A9F7809590958B
:105A7000BC01CD01089597FB072E16F4009407D0C2
:105A800077FD09D00E94272D07FC05D03EF49095A4
:105A900081959F4F0895709561957F4F0895052ECC
:105AA00097FB1EF400940E94662D57FD07D00E94BC
:105AB000742D07FC03D04EF40C94662D5095409540
:105AC000309521953F4F4F4F5F4F089590958095AA
:105AD000709561957F4F8F4F9F4F0895EE0FFF1F79
